:020000040800F2
:1000000000000520B50600080507000805070008E0
:1000100005070008050700080507000800000000A4
:1000200000000000000000000000000005070008BC
:100030000507000800000000050700080707000882
:100040000507000805070008050700080507000860
:100050000507000805070008050700080507000850
:100060000507000805070008050700080507000840
:100070000507000805070008050700080507000830
:100080000507000805070008050700080507000820
:100090000507000805070008050700080507000810
:1000A0000507000805070008050700080507000800
:1000B00005070008050700080507000805070008F0
:1000C00005070008050700080507000805070008E0
:1000D00005070008050700080507000805070008D0
:1000E00005070008050700080507000805070008C0
:1000F00005070008050700080507000805070008B0
:10010000050700080507000805070008050700089F
:10011000050700080507000805070008050700088F
:10012000050700080507000805070008050700087F
:10013000050700080507000805070008050700086F
:10014000050700080507000805070008050700085F
:10015000050700080507000805070008050700084F
:10016000050700080507000805070008050700083F
:100170000507000805070008000000000000000057
:10018000050700080507000805070008050700081F
:100190000507000805070008000000000507000823
:1001A0000507000805070008000000000000000027
:1001B0000507000800000000000000000507000817
:1001C00005070008050700080507000805070008DF
:0801D0000507000805070008FF
:1001D800044B05481B1A062B02D9044B03B11847D8
:1001E800704700BF3F0400203C04002000000000CE
:1001F80005490648091A891001EBD171491002D046
:10020800034B03B1184770473C0400203C0400200E
:100218000000000010B5064C237843B9FFF7D8FF5B
:10022800044B13B10448AFF300800123237010BDC1
:100238003C04002000000000C811000808B5084B65
:100248001BB108490848AFF300800848036813B990
:10025800BDE80840CCE7064B002BF9D09847F7E7F4
:100268000000000040040020C81100083C040020E1
:100278000000000053B94AB9002908BF00281CBF74
:100288004FF0FF314FF0FF3000F07AB9ADF1080CB4
:100298006DE904CE00F006F8DDF804E0DDE902239C
:1002A80004B070472DE9F0478C460D460446089E79
:1002B800002B51D18A4217466DD9B2FA82FEBEF19F
:1002C800000F0BD0CEF1200C01FA0EF520FA0CFC31
:1002D80002FA0EF74CEA050C00FA0EF44FEA174A38
:1002E800250CBCFBFAF81FFA87F90AFB18CC45EA7B
:1002F8000C4508FB09F3AB420AD9ED1908F1FF32A6
:1003080080F02381AB4240F22081A8F102083D44ED
:10031800ED1AA4B2B5FBFAF00AFB105544EA0544FD
:1003280000FB09F9A14509D9E41900F1FF3380F070
:100338000A81A14540F2078102383C44A4EB090434
:1003480040EA08400021002E61D024FA0EF4002370
:1003580034607360BDE8F0878B4207D9002E54D013
:10036800002186E821000846BDE8F087B3FA83F14A
:10037800002940F08E80AB4202D3824200F2FA801C
:10038800841A65EB03050120AC46002E3FD086E8B1
:100398001010BDE8F08712B90127B7FBF2F7B7FADA
:1003A80087FEBEF1000F34D1EB1B3A0C1FFA87FC15
:1003B8000121B3FBF2F8250C02FB183345EA03458B
:1003C8000CFB08F3AB4207D9ED1908F1FF3002D254
:1003D800AB4200F2D1808046ED1AA3B2B5FBF2F031
:1003E80002FB105543EA05440CFB00FCA44507D961
:1003F800E41900F1FF3302D2A44500F2B880184690
:10040800A4EB0C0440EA08409DE731463046BDE8BD
:10041800F087CEF1200405FA0EF307FA0EF720FA5A
:1004280004F83A0C25FA04F448EA0308B4FBF2F19C
:100438004FEA184502FB11441FFA87FC45EA0445B8
:1004480001FB0CF3AB4200FA0EF409D9ED1901F1E6
:10045800FF3080F08A80AB4240F2878002393D4409
:10046800EB1A1FFA88F5B3FBF2F002FB103345EAEA
:10047800034500FB0CF3AB4207D9ED1900F1FF3837
:100488006FD2AB426DD902383D44EB1A40EA0141C4
:100498008FE7C1F1200722FA07F88B4005FA01F42B
:1004A80048EA030320FA07FE4FEA134CFD404EEAE0
:1004B800040EB5FBFCF94FEA1E440CFB19551FFA54
:1004C80083F844EA054509FB08F4AC4202FA01F254
:1004D80000FA01FA08D9ED1809F1FF3043D2AC420D
:1004E80041D9A9F102091D442D1B1FFA8EFEB5FB47
:1004F800FCF00CFB10554EEA054400FB08F8A0453B
:1005080007D9E41800F1FF3529D2A04527D90238C8
:100518001C4440EA0940A4EB0804A0FB02894C45AE
:10052800C6464D4615D312D056B1BAEB0E0364EB4E
:10053800050404FA07F7CB401F43CC4037607460CA
:100548000021BDE8F0871846F8E69046E0E6C24587
:10055800EAD2B8EB020E69EB03050138E4E7284656
:10056800D7E7404691E78146BEE7014678E702387B
:100578003C4445E7084608E7A8F102083D442BE754
:10058800704700BF002301461A46184600F03EB8DF
:1005980038B50A4C0A4D641BA4100AD004F18043F4
:1005A800013B05EB8305013C55F804399847002CBD
:1005B800F9D1BDE8384000F009BE00BF08120008B4
:1005C8000412000870B50D4E0D4D761BB61006D0FE
:1005D8000024013455F8043B9847A642F9D1094E46
:1005E800094D761B00F0ECFDB61006D0002401344E
:1005F80055F8043B9847A642F9D170BDFC11000894
:10060800FC11000804120008FC1100082DE9F0474D
:10061800244C2568D5F848410646884692469946AE
:10062800BCB360681F2808DC431CEEB90230636065
:1006380044F820800020BDE8F0871B4B73B34FF4CB
:10064800C870AFF30080044640B3D5F8483100279E
:10065800C0E90037C5F8484138460123C4F8887115
:10066800C4F88C71002EE1D004EB80050122C5F896
:1006780088A0D4F8881182401143022EC4F888114A
:10068800C5F80891D2D1D4F88C110A43C4F88C214A
:10069800CCE705F5A674C5F84841C2E74FF0FF302E
:1006A800C9E700BFE011000800000000DFF834D0FF
:1006B800002103E00C4B5B58435004310B480C4BB2
:1006C80042189A42F6D30B4A02E0002342F8043B50
:1006D800094B9A42F9D300F083F8FFF773FF00F053
:1006E80079F8704700000520081200080000002073
:1006F8003C0400203C0400205C040020FEE708B510
:1007080000F042FDBDE8084000F0F3B870B5AAB0AB
:100718002E4B002100911A6C42F080521A641B6C17
:1007280003F080530093009B294B01911A6842F40F
:1007380040421A601B6803F440430193019B052360
:1007480007934FF480330893012309934FF48003F0
:100758000E93102302240F934FF480760425082368
:1007680007A80D94109611951293139400F07AFA35
:1007780000B1FEE70F23029304904FF480530690D4
:10078800032102A80394059300F01EFC00B1FEE7C4
:10079800682320901E9014A814931D9600F0AEF8BC
:1007A800044600B1FEE700F0A9FC4FF47A73B0FBF1
:1007B800F3F000F07BF8284600F08EF82246214638
:1007C8004FF0FF3000F03EF82AB070BD003802400C
:1007D8000070004008B500F0BDFCFFF797FFFEE78A
:1007E8000C4B1A68002142F001021A6099601A68DD
:1007F80022F0847222F480321A60074A5A601A681A
:1008080022F480221A60D960044B4FF000629A608B
:10081800704700BF003802401030002400ED00E0AF
:10082800074AD36823F4E0631B041B0C43F0BF633F
:10083800000243F4003300F4E0600343D3607047E0
:1008480000ED00E0174B30B5DC68C4F30224C4F1B6
:100858000703251D042B28BF0423062D4FF001058F
:1008680005FA03F303F1FF338CBF033C002419405E
:10087800A14005FA04F4013C2240002842EA0102A2
:100888004FEA0212AFBF00F1604000F00F00064BC4
:10089800D2B2A5BF00F56140D2B21A5480F8002345
:1008A80030BD00BF00ED00E014ED00E00138B0F10C
:1008B800807F0AD2064B074A5860F02182F823103D
:1008C8000020072298601A6070470120704700BF17
:1008D80010E000E000ED00E0044B1A6804280CBFAB
:1008E80042F0040222F004021A60704710E000E0AF
:1008F800704708B5FFF7FCFF08BD000003682DE945
:10090800F34113F0010504460BD08F49C569D1F8AE
:100918008C2022F0C0622A43B5FA85F5C1F88C20F4
:100928006D099A070BD58848216AD0F88C2022F0E7
:10093800C0520A430029C0F88C2008BF01259F0433
:1009480018D58149A06CD1F88C2022F440120243BA
:10095800C1F88C20002800F0C280B0F5001F09D132
:10096800D1F88C20606922F4F852013842EA00225A
:10097800C1F88C205E0418D57349E06CD1F88C203E
:1009880022F440020243C1F88C20002800F0A9801C
:10099800B0F5000F09D1D1F88C20606922F4F85223
:1009A800013842EA0022C1F88C20180733D5002309
:1009B8000193654B654E1A6C42F080521A641B6CA9
:1009C80003F080530193019B336843F480733360D1
:1009D80000F0E6FB07463368D90540F184805A4E9B
:1009E800336F13F4407340F08880636A03F44072F5
:1009F800B2F5407F544A40F0A280916823F07040DD
:100A080021F4F81120F4407001439160116FC3F391
:100A18000B030B43136723685F0742BF4C4B94F8E3
:100A280054201A602268D60608D54749E06AD1F8EA
:100A3800943023F440030343C1F8943090060CD556
:100A48004148216BD0F8943023F000630B43B1F197
:100A5800006FC0F8943008BF0125510608D53A49FF
:100A6800A06AD1F8943023F080530343C1F894303E
:100A7800012D71D0802A6FD02068C20500F1E28074
:100A8800810508D5304AA16BD2F88C3023F4004395
:100A98000B43C2F88C30420508D52B4AE16BD2F8DB
:100AA8008C3023F000430B43C2F88C30030508D583
:100AB800254A216CD2F88C3023F480430B43C2F8CA
:100AC8008C3010F4805015D01F4A616CD2F89430E5
:100AD80023F040430B43C2F8943000200AE001257C
:100AE80048E7012561E700F05BFBC01B02287FF6A1
:100AF80072AF032002B0BDE8F081626A02F440726E
:100B080093423FF472AF336F124A0121116023F40C
:100B18004073002111603367336FDA077FF565AFE3
:100B280000F03EFB41F288380746336F9B073FF5DC
:100B38005CAF00F035FBC01B4045F6D9D9E791689A
:100B480021F4F81161E700BF00380240007000404E
:100B5800E0114742400E47423F4D404E00232B6074
:100B680000F01EFB074633681B0165D43C4B226D21
:100B78001A602268D70701D5E3698BB1960701D5BA
:100B8800236A6BB1900603D5236BB3F1006F07D0CE
:100B9800510612D5A36A83B9236BB3F1006F0CD148
:100BA800E368A1681B0643EA811361680B43216966
:100BB80043EA01732949C1F88430930401D5A36C31
:100BC8001BB1570419D5E36CBBB924496068D1F847
:100BD800843003F070630343A06843EA80132069FC
:100BE80043EA0073C1F88430D1F88C00A36920F07F
:100BF8001F00013B0343C1F88C3016060CD5E3688F
:100C0800A2681B0643EA821362681343226943EA17
:100C18000273124AC2F8843001232B6000F0C0FA34
:100C28000E4D06462B6818013FF526AF00F0B8FABE
:100C3800801B0228F6D95CE700F0B2FAC01B022834
:100C480091D956E7054A616BD2F88C3023F00043FE
:100C58000B43C2F88C3013E7680047420038024063
:100C6800D810474203682DE9F341DD07044610D444
:100C7800236898075BD423681A0700F19D802368CE
:100C88005B0700F1BB80A269002A40F01C810020AC
:100C980015E0A74B9A6802F00C02042A07D09A685C
:100CA80002F00C02082A0DD15B6859020AD5A04B44
:100CB8001B689A03DCD56368002BD9D1012002B0E8
:100CC800BDE8F08163689A4DB3F5803F11D12B6878
:100CD80043F480332B6000F063FA954D06462B6889
:100CE8009B03C5D400F05CFA801B6428F7D9032065
:100CF800E5E7B3F5A02F04D12B6843F480232B60DC
:100D0800E5E72A6822F480322A602A6822F48022E1
:100D18002A60002BDFD100F043FA06462B689F03B8
:100D2800A6D500F03DFA801B6428F7D9DFE7804B91
:100D38009A6812F00C0F07D09A6802F00C02082A81
:100D480011D15B685E020ED4794B1A68950702D5FB
:100D5800E268012AB2D11A68216922F0F80242EA4F
:100D6800C1021A6087E7E268724BB2B101221A60C9
:100D780000F016FA6E4D06462B68980707D52B68C3
:100D8800226923F0F80343EAC2032B6073E700F0FB
:100D980007FA801B0228EFD9A9E71A6000F000FAC9
:100DA800634D06462B6899077FF565AF00F0F8F9A3
:100DB800801B0228F6D99AE762695F4B7AB1012253
:100DC8001A6000F0EDF95A4D06466B6F9F073FF524
:100DD80056AF00F0E5F9801B0228F6D987E71A60BC
:100DE80000F0DEF9524D06466B6F98077FF547AF66
:100DF80000F0D6F9801B0228F6D978E74C4B1A6C1C
:100E080012F0805228D101921A6C42F080521A6472
:100E18001B6C03F080530193019B0126474D2B68FF
:100E2800D9051BD5A368424D012B27D12B6F43F061
:100E380001032B6700F0B4F93D4D074641F28838AD
:100E48002B6F9B0739D5002E3FF41DAF384A136C22
:100E580023F08053136416E70026DFE72B6843F47A
:100E680080732B6000F09CF907462B68DA05D9D40B
:100E780000F096F9C01B0228F7D938E7052B04D1F2
:100E88002B6F43F004032B67D0E72A6F22F001028F
:100E98002A672A6F22F004022A67002BCAD100F0C1
:100EA8007FF941F2883807462B6F9807CBD500F0B9
:100EB80077F9C01B4045F7D919E700F071F9C01B55
:100EC8004045BDD913E71A4DAB6803F00C03082B56
:100ED8003FF4F4AE1A4E0023022A336038D100F0F2
:100EE8005FF907462B6899012CD4226AE3691343FA
:100EF800626A43EA8213E26A43EA0263226B43EAC4
:100F08000273A26A0A4C5208013A43EA02436B6030
:100F18000123336000F044F9054623689A013FF540
:100F2800B6AE00F03DF9401B0228F6D9DFE600BF57
:100F38000038024000004742800E474200700040DF
:100F48006000474200F02CF9C01B0228CAD9CEE63F
:100F580000F026F904462B689B017FF598AE00F057
:100F68001FF9001B0228F6D9C1E600BF134908B5CE
:100F78008B6803F00C03042B03D0082B03D0104814
:100F880008BD104808BD4A684B68496813F48003D7
:100F980014BF0C480A48C1F3881118BF002302F097
:100FA8003F02A1FB0001FFF765F9044B5B68C3F33F
:100FB800014301335B00B0FBF3F008BD0038024089
:100FC8000024F40040787D012DE9F0410D460446E7
:100FD80010B90120BDE8F081444B1A6802F00F02F5
:100FE8008A4228D321688F072DD4C80740D43F4BA5
:100FF8001A6802F00F02954266D3226851076CD432
:10100800130707D53A4A2169936823F4604343EAF2
:10101800C1039360FFF7AAFF354B364A9B68C3F3B9
:101028000313D35CD840344B18600F2000F06EF8DF
:101038000020BDE8F081CAB21A701B6803F00F03E4
:101048009942C6D1CEE72A4B11F0040F1EBF9A6809
:1010580042F4E0529A600E0742BF9A6842F4604236
:101068009A609A68A06822F0F00202439A60BCE78E
:1010780062681F4B012A1DD11B6813F4003FA8D0DA
:101088001B4EB36823F003031343B36000F088F8E2
:1010980041F288380746B368626803F00C03B3EB83
:1010A800820FA4D000F07CF8C01B4045F3D9032080
:1010B800BDE8F081911E01291B6802D813F0007F5A
:1010C800DDE713F0020FDAE7EAB21A701B6803F0E3
:1010D8000F039D427FF47DAF8FE70549E0688B6879
:1010E80023F4E05303438B608AE700BF003C0240CF
:1010F80000380240E411000830040020014B186851
:10110800704700BF300400207047000038B50E4A11
:101118000E4B054618784FF47A73B3FBF0F310685A
:10112800B0FBF3F0FFF7C2FB044658B90F2D09D8FE
:10113800024629464FF0FF30FFF784FB044B204658
:101148001D6038BD012038BD300400203404002063
:101158003804002008B50B4B1A6842F400721A6074
:101168001A6842F480621A601A6842F480721A603F
:101178000320FFF755FB0F20FFF7C8FFFFF7C4FF59
:10118800002008BD003C0240034A044B11681B784C
:101198000B441360704700BF58040020340400203B
:1011A800014B1868704700BF58040020024B13B168
:1011B8000248FFF7E7B970470000000099050008EA
:1011C800F8B500BFF8BC08BC9E467047F8B500BF2C
:0811D800F8BC08BC9E467047FC
:1011E00008000020000000000000000001020304CD
:0411F00006070809DD
:0811F400B8F0FF7F01000000CC
:0811FC00B511000845020008CE
:041204001D020008BF
:10120800080000200000000000000000F402002098
:101218005C030020C4030020000000000000000060
:1012280000000000000000000000000000000000B6
:1012380000000000000000000000000000000000A6
:101248000000000000000000000000000000000096
:101258000000000000000000000000000000000086
:101268000000000000000000000000000000000076
:101278000000000000000000000000000000000066
:101288000000000000000000000000000000000056
:101298000000000000000000000000000000000046
:1012A8000000000000000000000000000000000036
:1012B80001000000000000000E33CDAB34126DE6D3
:1012C800ECDE05000B00000000000000000000003C
:1012D8000000000000000000000000000000000006
:1012E80000000000000000000000000000000000F6
:1012F80000000000000000000000000000000000E6
:1013080000000000000000000000000000000000D5
:0C1638000024F40001000000100000007D
:04000005080006B534
:00000001FF
